:020000040001F9
:10C0000090530020CDC60100D5C60100D7C601005F
:10C01000D9C60100DBC60100DDC60100000000003A
:10C02000000000000000000000000000DFC601006A
:10C03000E1C6010000000000E3C60100E5C6010002
:10C04000E7C60100E7C6010085CF0100E7C6010091
:10C05000E7C60100E7C6010079CA010065CC01000E
:10C06000E7C60100F9CE0100E7C60100E7C60100FE
:10C07000E7C60100E7C60100E7C60100E7C6010008
:10C08000E7C601004DCC0100E7C60100E7C601008C
:10C09000C9CC0100CDCC0100E5CC0100E7C6010010
:10C0A000E7C60100E7C60100E7C60100E7C60100D8
:10C0B000E7C60100E7C60100000000000000000024
:10C0C000E7C60100E7C60100E7C60100E7C60100B8
:10C0D000E7C60100E7C60100E7C601000000000056
:10C0E0000000000000000000000000000000000050
:10C0F0000000000000000000000000000000000040
:10C10000000000000000000000000000000000002F
:10C11000000000000000000000000000000000001F
:10C40000DFF80CD000F0E8FA004800470D1B0200EE
:10C4100090530020401E00BF00BF00BF00BF00BF00
:10C4200000BF00BF00BF00BF00BF00BF00BF00BF14
:10C4300000BF00BF00BF00BF00BF00BF00BF00BF04
:10C4400000BF00BF00BF00BF00BF00BF00BF00BFF4
:10C4500000BF00BF00BF00BF00BF00BF00BF00BFE4
:10C4600000BF00BF00BF00BF00BF00BF00BF00BFD4
:10C4700000BF00BF00BF00BF00BF00BF00BF00BFC4
:10C4800000BF00BF00BFC5D170470000401E00BF05
:10C4900000BF00BF00BF00BF00BF00BF00BF00BFA4
:10C4A00000BF00BF00BF00BF00BF00BF00BF00BF94
:10C4B00000BF00BF00BF00BF00BF00BF00BF00BF84
:10C4C00000BF00BF00BF00BF00BF00BF00BF00BF74
:10C4D00000BF00BF00BF00BF00BF00BF00BF00BF64
:10C4E00000BF00BF00BF00BF00BF00BF00BF00BF54
:10C4F00000BF00BF00BF00BF00BF00BF00BFC5D16D
:10C5000070470000401E00BF00BF00BF00BF00BF5B
:10C5100000BF00BF00BF00BF00BF00BF00BF00BF23
:10C5200000BF00BF00BF00BF00BF00BF00BF00BF13
:10C5300000BF00BF00BF00BF00BF00BF00BF00BF03
:10C5400000BF00BF00BF00BF00BF00BF00BF00BFF3
:10C5500000BF00BF00BF00BF00BF00BF00BF00BFE3
:10C5600000BF00BF00BF00BF00BF00BF00BF00BFD3
:10C5700000BF00BF00BFC5D1704700BF00BF00BFF4
:10C5800000BF00BF00BF00BF00BF00BF00BF00BFB3
:10C5900000BF00BF00BF00BF00BF7047401E00BF0C
:10C5A00000BF00BF00BF00BF00BF00BF00BF00BF93
:10C5B00000BF00BF00BF00BF00BF00BF00BF00BF83
:10C5C00000BF00BF00BF00BF00BF00BF00BF00BF73
:10C5D00000BF00BF00BF00BF00BF00BF00BF00BF63
:10C5E00000BF00BF00BF00BF00BF00BF00BF00BF53
:10C5F00000BF00BF00BF00BF00BF00BF00BF00BF43
:10C6000000BF00BF00BF00BF00BF00BF00BFC5D15B
:10C61000704700BF00BF00BF00BF00BF00BF00BF2A
:10C6200000BF00BF00BF00BF00BF00BF00BF00BF12
:10C6300000BF7047401E00BF00BF00BF00BF00BF6B
:10C6400000BF00BF00BF00BF00BF00BF00BF00BFF2
:10C6500000BF00BF00BF00BF00BF00BF00BF00BFE2
:10C6600000BF00BF00BF00BF00BF00BF00BF00BFD2
:10C6700000BF00BF00BF00BF00BF00BF00BF00BFC2
:10C6800000BF00BF00BF00BF00BF00BF00BF00BFB2
:10C6900000BF00BF00BF00BF00BF00BF00BF00BFA2
:10C6A00000BF00BF00BFC5D1704700BF00BF00BFC3
:10C6B00000BF00BF00BF00BF00BF00BF00BF00BF82
:10C6C00000BF00BF00BF00BF00BF704706488047E3
:10C6D00006480047FEE7FEE7FEE7FEE7FEE7FEE767
:10C6E000FEE7FEE7FEE7FEE715CD010001C401000D
:10C6F00040EA01039B0703D009E008C9121F08C0E4
:10C70000042AFAD203E011F8013B00F8013B521E63
:10C71000F9D27047D2B201E000F8012B491EFBD2DA
:10C7200070470022F6E710B513460A46044619463C
:10C73000FFF7F0FF204610BD30B504460020034649
:10C7400000E05B1C934203D2E05CCD5C401BF8D060
:10C7500030BD2DE9FE4F81EA030404F0004421F0CE
:10C76000004100944FF0000B23F0004350EA010415
:10C7700002D052EA030404D10020014603B0BDE810
:10C78000F08FC3F30A54C1F30A552C44A4F2F334D6
:10C790000194A0FB0254C1F3130141F48011C3F3CF
:10C7A000130343F4801301FB024400FB034E840A8D
:10C7B000970A44EA815447EA8357A4FB0768029525
:10C7C0008D0A05FB07854FEA932C04FB0C542705C3
:10C7D000029D4FEA065847EA1637B5EB08056EEB9F
:10C7E000070C870E920E47EA811742EA8312A7FBD5
:10C7F0000201B6EB0B0164EB00042B0D43EA0C3392
:10C800005E1844EB1C50DA465146E7FB0201C5F3C3
:10C8100013044FEA0B3343EA14534FEA0432019CEA
:10C8200043EA0603A4F10C040294009CCDE900B491
:10C8300000F07FF8A2E70EB5C10F80EAE07008446F
:10C84000CA07002140F233438DE80E000A460B462A
:10C8500000F06FF803B000BD70B5C1F30A5201F0EB
:10C8600000450024C1F3130140F2FF3341F480116D
:10C870009A4201DA002070BD40F233439A42A2F29C
:10C88000334203DC524200F037F800E090402C4382
:10C89000F1D0404270BD2DE9F05F05460020924680
:10C8A0009B4688460646814640241BE02846414672
:10C8B0004746224600F020F853465A46C01A914196
:10C8C00010D311461846224600F098F82D1A67EB4F
:10C8D00001084F4622460120002100F08FF817EB97
:10C8E00000094E41201EA4F10104DFDC4846314618
:10C8F0002A464346BDE8F09F202A04DB203A21FA6D
:10C9000002F00021704721FA02F3D040C2F1200268
:10C91000914008431946704710B5002B08DA401CB7
:10C9200041F1000192185B411A4301D120F001004E
:10C9300010BD2DE9F04D92469B4611B1B1FA81F23E
:10C9400002E0B0FA80F22032904600F057F8044638
:10C950000F4640EA0A0041EA0B0153465A46084393
:10C9600003D120463946BDE8F08D114653EA010057
:10C9700015D0C8F140025046FFF7BEFF05460E46EF
:10C9800050465946424600F039F8084301D001208C
:10C9900000E00020054346EAE0762C4337430A983E
:10C9A0004FEA4453A0EB08004FEAD4240A304FF07A
:10C9B000000244EA47544FEAD72502D50020014639
:10C9C000D1E7010510196941DDE908450019694100
:10C9D000BDE8F04DA0E70000064C074D06E0E0681A
:10C9E00040F0010394E8070098471034AC42F6D3B6
:10C9F000FFF70AFD1C4302003C430200202A04DB2F
:10CA0000203A00FA02F1002070479140C2F1200361
:10CA100020FA03F319439040704770B501EB02040C
:10CA200010F8015B15F0070301D110F8013B2A1142
:10CA300006D110F8012B03E010F8016B01F8016B2F
:10CA40005B1EF9D12B0705D40023521E0FD401F829
:10CA5000013BFAE710F8013B02F10202A1EB0303EC
:10CA600003E013F8015B01F8015B521EF9D5A14206
:10CA7000D6D3002070BD00002DE9FC5F0025DFF853
:10CA80003091A8464FF4807601242F46304605F0B9
:10CA90009BFA38B1D9F80403204203D0304605F0A0
:10CAA0008BFA2543361D64007F1CB6B2082FEDD3E8
:10CAB0004FF4BE74204605F087FA38B1204605F0E1
:10CAC0007BFA3C4845F00045D0F800803A4E15F01E
:10CAD000FF0F13D0012700242F420BD0374800EB63
:10CAE000840108680968C0F3042056F82420C1F3C3
:10CAF000014190477F00641C082CEDD3002D54DACF
:10CB00004FF0000A4FF0FF3900273D46701910F82A
:10CB1000501F90F9000021F0C004401C37D00120C4
:10CB200000FA04FB1BEA090F31D088090090204667
:10CB300002F078FB56F82000019020B10099584689
:10CB4000032904D005E00098032820D158464AEA7A
:10CB5000000A1B4951F824101BEA080FC1F30141D8
:10CB600002D0022902D012E0032910D10098032834
:10CB700007D1022917D00221204605F0E7F97F1CD2
:10CB8000FFB2019818B1DDE90012204690476D1CF4
:10CB9000042DBBD3002F08D006480068404504D0C0
:10CBA0008046D146B0E70321E6E7BDE8FC9F0000E0
:10CBB00000600040100500503C2C00201065004033
:10CBC0000007005000F01F020121914040094FF082
:10CBD000E02202EB8000C0F88012704700F01F02D4
:10CBE0000121914040094FF0E02202EB8000C0F8A3
:10CBF0000011704700F01F020121914040094FF0E1
:10CC0000E02202EB8000C0F8001270474907090ECD
:10CC1000002803DA00F00F00024A00E0024A8154C3
:10CC20007047000014ED00E000E400E0BFF34F8F18
:10CC300004480168044A01F4E06111430160BFF354
:10CC40004F8FFEE70CED00E00400FA0504480021D8
:10CC5000016441648164C1640160416007F02EB8E1
:10CC60000011014070B515490020D1F80C21002AAF
:10CC700022D00022C1F80C211149124D104BB1F9FC
:10CC8000002001216A80103303EB410633F8114084
:10CC900026F8024C844200D32046491CC9B20A2916
:10CCA000F2D35A82904200DC90B200F045FCA88892
:10CCB000BDE8704000F00EBC70BD00000070004088
:10CCC000683300201422002006F098BF0449087839
:10CCD00080F0010008704968002900D008477047BB
:10CCE00088210020094810B5406848B180470028D5
:10CCF0000AD0BDE81040064A4FF4B37100F045BEBB
:10CD0000BDE8104004F00AB810BD0000FC2000206F
:10CD1000F4400200694810B500780021012206287D
:10CD20007ED16648001D0078000779D1634808303D
:10CD30000078C0F30310032804D0042805D0052888
:10CD400003D00AE05F4C5E4B63675F4B1B685F4C30
:10CD5000C3F342332360032804D0042807D00528F6
:10CD600005D01CE05A4B1C6824F080741C60594BA1
:10CD700019605960554B1B1F196003280FD1534C84
:10CD8000032364342360544C05232360524B7833CF
:10CD90001A60514B083319603F23241D2360052876
:10CDA00057D14E4800684E4B18604C48001D006833
:10CDB0001B1D18604948083000681B1D1860474853
:10CDC0000C3000681B1D18604448103000681B1DA3
:10CDD00018604248143000681B1D18603F48183026
:10CDE00000683F4B203318603C481C3000681B1D16
:10CDF00018603A48203000681B1D186037482430FE
:10CE000000681B1D18603548283000681B1D18601D
:10CE100032482C3000681B1D18603048303000E06C
:10CE200017E000682E4B403318602C4834300068FF
:10CE30001B1D18602948383000681B1D18602748E2
:10CE40003C3000681B1D18602448403000681B1DE2
:10CE500018601F487438036843F470030360BFF31D
:10CE60004F8FBFF36F8F4FF01023D3F80C02C00722
:10CE70001FD01C4C22601C480268002AFCD0D3F84A
:10CE80000C2222F00102C3F80C220268002AFCD016
:10CE9000216001680029FCD0BFF34F8F0C48F038A7
:10CEA0000168124A01F4E06111430160BFF34F8F42
:10CEB000FEE710490E48086010BD0000E00F00F0CA
:10CEC0000DF0ADBA00C00740440200103C05004020
:10CED000FCED00E00C01004010560040040400107E
:10CEE00020C5004004E5014000E401400400FA05CB
:10CEF0000090D003F82000201E4810B5D0F8402143
:10CF00000021012A05D1D0F80423D20301D5C0F8AD
:10CF10004011194C206848B318480268E368B3FB15
:10CF2000F2F263689A4203D861602269521C22615E
:10CF30002369A26852F82320102A07D00E49A43191
:10CF400051F822100E4AB2FBF1F102E021604FF6D7
:10CF5000FF7101602079C00702D002F0E3F801E020
:10CF600002F0EAF86068401C606010BDBDE8104047
:10CF700002F0CEB8009000406422002040950040AE
:10CF800090D003001CB506F071FF6D282AD012DC8A
:10CF9000632820D007DC612819D0622802D1012043
:10CFA00002F0D4F81CBD662818D06C28FAD1FF20F6
:10CFB00004F056F91CBD6E2817D0702810D07328C5
:10CFC00018D07528F6D1042002F012FE1CBD0120F5
:10CFD00001F046FC1CBD02F0DFFA1CBD0520F3E7A2
:10CFE0000320F1E70121032001E00121332004F0B7
:10CFF0005FFE1CBD684601F059FF1CBD0FB4054B18
:10D0000010B503A9044A029800F02CF810BC5DF892
:10D0100014FB0000D1060200582300200FB4084B77
:10D0200010B504A902AA039800F01CF8044602A94E
:10D03000002000F04AFA204610BC5DF814FB000006
:10D04000CBD4010002E008C8121F08C1002AFAD19F
:10D0500070477047002001E001C1121F002AFBD178
:10D06000704700002DE9FF4F8DB00F4605460026A2
:10D07000E2E1252874D100246D1CF349A246A146A3
:10D0800001222B78203B02FA03F0084202D004432D
:10D090006D1CF6E728782A2810D06FF02F02287828
:10D0A000A0F13001092915D80AEB8A0102EB4101F0
:10D0B00044F0020400EB010A6D1CF0E757F804ABE2
:10D0C000BAF1000F03DA44F40054CAF1000A44F044
:10D0D00002046D1C28782E2817D115F8010F44F092
:10D0E00004042A280ED06FF02F022878A0F1300116
:10D0F00009290AD809EB890102EB410100EB01097A
:10D100006D1CF2E757F8049B6D1C28786C280FD033
:10D1100006DC4C2817D068280DD06A2814D104E00A
:10D12000742810D07A280FD10DE044F400140AE0DE
:10D1300044F4801401E044F440146978814202D13F
:10D140006D1C04F580146D1C2A786E2A20D00DDC2D
:10D15000632A33D005DC002A6FD0582A12D1A4E00C
:10D1600011E0642A6AD0692A0CD167E0732A2FD0B3
:10D1700004DC6F2A6FD0702A04D19BE0752A6BD033
:10D18000782A6AD01046DDE90F129047761C52E1EA
:10D19000C4F30250022806D003280AD0042801CF85
:10D1A0000AD0066047E101CF4FEAE671C0E90061AD
:10D1B00041E101CF06803EE106703CE117F8040B27
:10D1C0008DF8000000208DF80100EB46012003E0FF
:10D1D00057F804BB4FF0FF3061074FF0000102D455
:10D1E0000DE008F10101884649450FDA8045F8DB7A
:10D1F0001BF808100029F4D108E008F10101884665
:10D200008142FADB1BF808100029F6D1DDE90F2373
:10D21000AAEB08008146214600F03FF9304400EBBC
:10D22000080604E0DDE90F121BF8010B9047B8F186
:10D230000108F7D221464846F8E001E10A21C4F38B
:10D2400002534FF0000B0891022B07D001CFC117FA
:10D25000032B09D00AE036E023E024E0FF1D27F08D
:10D260000707F7E8020105E000B2C117042B01D15E
:10D2700040B2C117002907DA4FF0000CD0EB0C00C8
:10D280006CEB01012D2302E0230504D52B238DF83F
:10D290002430012303E0E30701D02023F7E7984679
:10D2A00052E00A2110E010210EE010204FF0000B98
:10D2B00008900CE010214FF0000B44F004044FF0F4
:10D2C0000809089103E008214FF0000B0891C4F30E
:10D2D0000253022B04D001CF0021032B06D006E01D
:10D2E000FF1D27F00707F7E8020103E080B2042BD7
:10D2F00000D1C0B24FF00008230725D5702A2AD0EC
:10D30000DDF820C08CF0100C5CEA0B0C09D150EA5F
:10D31000010306D030238DF824308DF82520022318
:10D320009846DDF820C08CF0080C5CEA0B0C0BD1A1
:10D3300050EA010301D1630706D530238DF824306C
:10D340004FF00108A9F10109582A09D03FA20B9218
:10D3500008AA0A9211E040238DF824300123DFE768
:10D360003FA2F4E75B46089AFFF795FA0B9B9B5C9C
:10D370000A9AA2F101020A92137050EA0102F1D155
:10D380000A98ADEB000000F1200B600702D524F4F1
:10D39000803401E04FF00109D94502DDA9EB0B0013
:10D3A00000E0002000EB0B0141440890AAEB0100D3
:10D3B0000B90E00306D4DDE90F2321460B9800F023
:10D3C0006CF806444FF000090DF1240A07E0DDE98E
:10D3D0000F121AF809009047761C09F10109C1459E
:10D3E000F5DBE0030CD5DDE90F2321460B9800F0B7
:10D3F00054F8064404E0DDE90F1230209047761C13
:10D400000899481E08900029F5DC08E00A980A9956
:10D410000078491C0A91DDE90F129047761CBBF198
:10D420000001ABF1010BF1DC0B982146DDE90F2384
:10D4300000F020F806446D1C287800287FF419AE0F
:10D4400011B03046BDE8F08F092801003031323389
:10D450003435363738396162636465660000000030
:10D46000303132333435363738394142434445461A
:10D47000000000002DE9F041044600251E46174635
:10D48000880405D406E039462020B04705F101059F
:10D49000641EF8D52846BDE8F0812DE9F041044628
:10D4A00000251E469046C80301D5302700E02027FE
:10D4B000880405D506E041463846B04705F1010528
:10D4C000641EF8D52846BDE8F0810A68531C0B603D
:10D4D00010707047174910B50A888B1F824201D21D
:10D4E000642024E08A8A824201D900201FE00022C1
:10D4F00031F82240844204D301EB8204A4888442A0
:10D5000006D301EB8204648814B1521C92B2EFE797
:10D5100031F8224001EB8201201A8A8800EB80005A
:10D52000A21A92B2800090FBF2F08978081A187063
:10D5300010BD00001A22002041F2CC01484343F6FE
:10D540000E01B0FBF1F001498880704714220020E1
:10D5500010B50321012004F0D1FC0021084604F09D
:10D56000CDFC1849164808601648012108380160AA
:10D57000144A0020121F1060144B134A1A601A1D1F
:10D580001160124B03223C3B1A601A1D1060121DE1
:10D5900010600F4A0823C2F87C32D0670948183857
:10D5A00001600C498020C1F8FC010B4B60221A700D
:10D5B000C867BDE81040094909A0FFF71FBD00007A
:10D5C0000002020018750040683300202C760040ED
:10D5D0008870004084E000E007E400E0A842020018
:10D5E0005B25735D20436F6D706C6574652E0D0A4D
:10D5F0000000000002480121416001607047000006
:10D60000007000402DE9FC5F002516880746158054
:10D61000406B14468946A8464FF00C0A11234FF080
:10D62000020B98B101784846032E48D380F800B029
:10D630002288521C92B2228083542288521C92B2B9
:10D64000228009F802102088401C20803A6BDAB151
:10D650002088494600F11205B54230D80B54208885
:10D660001023401C80B220800B542088401C208056
:10D670000F202388155C401ECD54238840B25B1CCC
:10D6800023800028F5DA454697F82E0030B133465E
:10D690002246494603F09EFC050011D197F82D0063
:10D6A00030B132462146484600F0EAFF050007D176
:10D6B000B87818B32088C846001DB04202D9504639
:10D6C000BDE8FC9F684679DF0028F9D12188032056
:10D6D00008F8010020881921401C80B2208008F839
:10D6E00000102088401C80B2208000EB0801BDF8AB
:10D6F000000006F0D1FB218808442080F878B8B1FA
:10D70000228897F90310D31C4846B342D7D800F8B3
:10D7100002B022880123521C92B2228083542288B4
:10D72000521C92B2228009F802102088401C2080EE
:10D730007868B8B1228890F90010D31C4846B342EB
:10D74000BDD800F802B022880A23521C92B222806F
:10D7500083542288521C92B2228009F80210208839
:10D76000401C2080388950B1CDE900464B46062246
:10D77000022107F1080006F025FC0500A0D1388A37
:10D7800050B1CDE900464B460722032107F11000B6
:10D7900006F018FC050093D1388B50B1CDE9004656
:10D7A0004B461522142107F1180006F00BFC05006A
:10D7B00086D1386A30B133462246494601F0FAFE36
:10D7C0000500DBD1786A30B133462246494604F081
:10D7D000E1F90500D2D197F82C0038B13346224642
:10D7E0004946384605F05AFD0500C7D1387838B1AA
:10D7F000334622464946384604F086FA0500BDD134
:10D8000028465DE770B52248A6B04FF2314101804D
:10D8100002258570061F01243480B570382101A8C7
:10D82000FEF77FFF8DF804508DF8064005208DF837
:10D8300007000025ADF8145038210FA80695FEF713
:10D8400070FFADF84C4024211DA81496FEF769FF27
:10D85000C82021908DF874503C2022904FF44860ED
:10D8600024908DF88040B4208DF88C402590094B91
:10D870001DAA0FA9009501A800F09EFA20B106A2EA
:10D8800040F27A3100F081F8002077DF26B070BDD9
:10D89000A4200020D91F02004170705C626C655F9B
:10D8A00073797374656D2E630000000010B503205A
:10D8B00000F06CFB20B1044A4FF4637100F065F88E
:10D8C00002490120087010BDDC40020084200020C5
:10D8D00010B58188002914D08068132209A1FEF7B1
:10D8E0002BFF0D4C28B90120207104F1380040684D
:10D8F000A0622279E0780023BDE81040194603F0C9
:10D900006FBD10BD636F6D2E6170706C652E4D6FB5
:10D9100062696C65534D53008420002010B50649A0
:10D92000064800F04EFD002805D0BDE81040044A2E
:10D93000F82100F02AB810BDBC20002018270020D4
:10D94000DC40020030B4827800210E4C012A01D064
:10D95000022A04D1027852B1012A08D0E17042684B
:10D96000A36A9A4207D10078022803D003E001227B
:10D97000E270F4E721712279E078002330BC194687
:10D9800003F02EBD8420002070477047014B1B68B8
:10D99000184700002C33002070B5002411B18A070D
:10D9A000254601D0072070BD094A0B465160107012
:10D9B00000EB40005570C10018469560FEF7B1FEBF
:10D9C00004F04AFA10B904F01DFA0446204670BD6E
:10D9D0009021002038B50C46074BA268097802EB6D
:10D9E000420253F82250054A126A0092024604F19C
:10D9F00008002369A84738BDF82E002064210020C4
:10DA0000074910B50A7802EB820201EB8201091D79
:10DA1000FFF7E0FFBDE81040042005F037BD00002F
:10DA20002C2E002070B50F4B054605201C785E7823
:10DA3000A64216D01C7818789E88B04201DA401CA5
:10DA400000E0002018705E88D86804FB060028609B
:10DA5000986800EBC4039B880B8050F8340010607A
:10DA6000002070BDD02100200EB504E0029ABDF860
:10DA700004100098904702AA01A96846FFF7D2FF58
:10DA80000028F3D00EBD000030B5CB0008339DB2A6
:10DA900093074FF0000401D0072030BD044B9A607B
:10DAA0002A44DA605C701C7058809980002030BD78
:10DAB000D0210020074B9B6823B12AB120B1006818
:10DAC000037C1BB1082070470720704741744261F6
:10DAD00000207047102100202DE9F04780460F46B6
:10DAE0009946144690074FF0000634D11C4D8CB374
:10DAF00005F010F80320C5F81490287004F1180000
:10DB0000002107EB4703AC6004EBC102491C16700F
:10DB100056709770506000EBC3000329F4DBEE6091
:10DB20006E70AE701420FFF74DF806211420FFF739
:10DB30006DF81420FFF752F80A49C1F80080062159
:10DB40001120FFF763F80748001F006828610020D4
:10DB5000BDE8F08701E00720FAE7AE60FBE70000D0
:10DB600010210020081501402DE9F843DFF86C90E2
:10DB70000D461746D9F80810044649B344B3052D9D
:10DB800002D20720BDE8F883606908B3607C0128F1
:10DB900020D0002606F0E2F9D9F80810804601EB03
:10DBA000C800694606F0FAF9B0B1012101700C49CC
:10DBB000446009680830E2C0D9F8081001EBC800D9
:10DBC0009DF8001041701420FFF714F80020D9E7E9
:10DBD0000820D7E72E46DDE70420D3E710210020F8
:10DBE00004150140F8B5124E0446B168E1B1DCB14C
:10DBF0006069C8B10027277406F0B0F90546B0681F
:10DC0000694600EBC50006F0C9F978B10221017040
:10DC10004460B0689DF8001000EBC500417014200E
:10DC2000FEF7E8FF3846F8BD0820F8BD0420F8BD2F
:10DC30001021002002A24FF4B771FFF7A6BE00002A
:10DC40004170705C626C655F73797374656D2E638F
:10DC50000000000010B5642004F0AAF80A4800F0A3
:10DC600023FB20B109A24FF4AF71FFF78EFE0648E7
:10DC700000F0B8FA002806D0BDE8104003A240F238
:10DC80006111FFF782BE10BD182700204170705C43
:10DC9000626C655F73797374656D2E6300000000BC
:10DCA00070B590F8A240B0F88C3000EBC404E48F5B
:10DCB000A3420ED2B0F8A040A3420AD213688C301F
:10DCC0005C1C1460CC5C018885694B1C20F88C3985
:10DCD0006C54B0F88C10B0F8A030994206D090F88F
:10DCE000A23000EBC303DB8F994214D18C300023A8
:10DCF000846963540388818A8C388B4203D2C91AA1
:10DD0000136819441160042180F8901050F8901B9A
:10DD10008847012070BD042070BD000004480078D1
:10DD20000A30642801D964207047C0B270470000EF
:10DD300014220020054908680968C0F3400080F0FB
:10DD4000010001F0010140EA410070471005005058
:10DD5000F0B50C4693B01F210726ADF80010ADF8C2
:10DD60000410002750B1C17849070DD56A4602A9B1
:10DD7000FFF748FC002808D102AD02E00025ADF80D
:10DD800000706CB1E07810B1304613B0F0BD01AA5C
:10DD90000AA92046FFF736FC0028F6D10AAA02E0BD
:10DDA0000022ADF80470BDF80400C3B2BDF8000055
:10DDB000C1B2284672DFE8E770B50D4604991646F1
:10DDC00004003DD0DEB33E4800224271C0E9033179
:10DDD000242231463B48FEF78BFC00F0CFF839494E
:10DDE0003431A1F1100001602031816038215C38AC
:10DDF000FEF797FC3348217838380170A17881709C
:10DE0000E178C17061784170D4E90412C0E904126C
:10DE1000D4E90212C0E90212D4E90612C0E90612DE
:10DE2000616AB9B100F1AC0200F1B80342629360DB
:10DE3000616A0E88168089889180002107E0FFE7DB
:10DE40000E2070BD666AB668765C5E54491C968882
:10DE50008E42F7D8A16AC9B11A4BAC33A3F10C02B8
:10DE600093608262A16A89889180A16A0988118081
:10DE7000002104E0A66AB668765C5E54491C968868
:10DE80008E42F7D894F82C1080F82C10216A41B1FA
:10DE90000B4914310162226A52884A80226A128830
:10DEA0000A80616821B10649891D4160616841604D
:10DEB0002946BDE8704003483838FFF749BF0000E5
:10DEC00044210020082D002010B502881D4C102A86
:10DED00018D00021112A1BD01B2A18D1007A002843
:10DEE00015D16079012820D0022824D0032824D01D
:10DEF00004280CD12171E2680846002A07D0BDE849
:10DF000010401047817D012901D18088208110BDFA
:10DF10006170808821898842F9D1012006E0216959
:10DF20000029F4D0BDE810400847022000F02EF888
:10DF30000028F4D110BD0320F8E70320207104204D
:10DF4000F4E700004421002010B5022801D0032886
:10DF500010D1094C207800280CD000202070607966
:10DF600000F014F8002805D02169002902D0BDE88E
:10DF70001040084710BD0000442100200248002145
:10DF80008161818381777047442100202DE9F04F22
:10DF9000744C87B00026607106A8069604F076FBE4
:10DFA0000127082801D030B903E006A802F092FB4F
:10DFB00018B9069808B12770C0E0FFF7DFFF6A4D77
:10DFC000DFF8A0814FF0020A687808F118084FF0D6
:10DFD000030B10B16079012806D0A87858B1607998
:10DFE000012801D002281FD1E16819B1E77008208B
:10DFF000884700E0E6706079012806D1687840B172
:10E0000008F1010004F013FB18B16079022802D076
:10E010000AE084F805A0A87820B108F1010004F016
:10E0200006FB08B984F805B0287B4FF0040920B935
:10E030006079032801D184F80590287E20B96079A1
:10E04000042801D166712671E16841B16079032825
:10E0500001D0042803D1287808B16078C0B1A67037
:10E0600018216846FEF75DFB8DF8006001968DF87B
:10E0700008600396607901280ED0022816D03A4E27
:10E080002436A6F15C0703281DD004284CD13AE0C1
:10E09000A77007208847E3E7ADF81260CDF8048049
:10E0A0008DF80070ADF8106027713FE0CDF8048066
:10E0B0008DF800702889ADF81200A888ADF810001E
:10E0C00084F804A032E0A88AADF81200288AADF8DE
:10E0D00010002548243005F0F9FF18B1287808B160
:10E0E000607810B184F804B01EE01F488DF808A0D5
:10E0F000039687F8039000213838FFF729FE00289F
:10E100001DD105202BE0A88BADF81000288CADF8B0
:10E1100012001548243005F0D9FF18B1287808B14D
:10E12000607878B184F80490607918B1684673DF3C
:10E13000002804D1E16809B120798847002007B0A0
:10E14000BDE8F08F08488DF808A0039687F8039083
:10E1500000213838FFF7FCFD0028F0D1062020719F
:10E16000E2E7000044210020082D002070B5124B8A
:10E17000997841B111490279104D0A71047B0C73F1
:10E180000021303507E0082070BD866856F8216010
:10E1900045F82160491C8C42F7D8084C0021103406
:10E1A00005E0056855F8215044F82150491C8A4281
:10E1B000F7D80020987070BD442100202C2D00203D
:10E1C00010B522B10BB1202B03D9092010BD0E20B0
:10E1D00010BD00EBC100012480F83C40C3870264FD
:10E1E000002010BDC18E0089012200F0EBBF68B194
:10E1F00001814AB1118A4183918DC186518D8186F9
:10E20000918BC184518B8184002070470E20704710
:10E2100070B5040042D0E1B30868D0B3002584F89B
:10E220008450C4F88850A4F88C500868206048686E
:10E2300060604FF6FF70208142F602102087208533
:10E2400004F10A0032210646FEF76BFA144804F185
:10E250000C0105604560134863DF00281FD1114899
:10E2600004F11401103063DF002818D10D4804F1C7
:10E270001E01203063DF002811D10A4804F12E016D
:10E28000303063DF00280AD14FF2314060813046E0
:10E2900000E003E0BDE8704000F072B90E2070BDF0
:10E2A000102F0020DC410200C18C0089012200F007
:10E2B00089BF0A46098811291ED038290FD039296B
:10E2C00021D102F10C01928803899A421BD10A885C
:10E2D000838C9A4209D18A88891D04F05CB900892F
:10E2E000918888420FD105F031BD838E9A420AD1C0
:10E2F0008A88891D04F0D8B801899288914202D198
:10E300004FF6FF710181704730B50B7895B001F180
:10E310000E02A3BB8B88A3F57444313C4DD18C799C
:10E32000037B9C4249D1002339E000BF03EB430447
:10E3300032F82450A5F590550D3D21D0A5F5344572
:10E34000DC3D0DD0A5F590550A3D27D102EB8404A4
:10E3500025680895656809952489ADF828401DE071
:10E3600002EB84042568CDF83A506568CDF83E503C
:10E370002589ADF842506489ADF844400EE01CE0B8
:10E3800002EB84042568CDF82A506568CDF82E503C
:10E390002589ADF832506489ADF834405B1C0C7AA5
:10E3A0009C42C3D800228DF800204988ADF80210A5
:10E3B00001686846884715B030BD01218DF800100E
:10E3C000F6E770B505460C46084600F055F80028FB
:10E3D00006D12846616800F005F8002185F8841010
:10E3E00070BD000070B5224D0023C3672C68214E1C
:10E3F00004EBC402641C04F0070406EB82022C60E8
:10E40000448B5483141D1462938301241476137176
:10E4100051710C0A94710C0CD471090E1172052300
:10E420000021022600EBC10494F83C50012D11D1CB
:10E43000D5185B1C2971012903D0022901D00329B9
:10E4400005D1E58FD41825712D0A65719B1CC46F09
:10E45000641CC467491C0829E4D3D3830189118053
:10E460009670C16FC0F8801005F070FC002070BD80
:10E47000A0210020102F00200178032902D28078EB
:10E480000C2801D30720704700207047034610B5C1
:10E490000020024602E09C5C6040521C8A42FAD393
:10E4A00010BD000070B5054601461C220F48FEF75E
:10E4B0001FF90F4C00262670286830B10168616092
:10E4C0004068A060201D7ADF02E00948001D7BDF64
:10E4D00000280AD14FF6FF7060806670BDE870407A
:10E4E000044A00210448FFF7E5BA70BDB42C0020AF
:10E4F00030210020B93E0200A041020070B51E4C40
:10E50000068800251B49E289102E15D01B4B112EC1
:10E510001CD0122E29D0502E17D130F8061F914250
:10E5200013D14189022910D1007B10F0010F11D0C5
:10E53000BDE8704001F0C6B883884B808369CB602A
:10E54000C06908614D70002AF2D070BD4FF6FF70AF
:10E5500048804D701868FFF745FB0028F5D0A16989
:10E560000029F2D0BDE8704008478268CA60C068E0
:10E570000861DDE730210020B42C0020A04102001A
:10E5800070B540B10C4D297839B1044604F0A6FAB3
:10E5900028B1002070BD0E2070BD082070BDE86855
:10E5A000062807D20549226801EB8001401C0A6059
:10E5B000E860EEE7042070BDA82100203030002084
:10E5C00040B1054900220123CA600B70C1E9010274
:10E5D000104670470E207047A821002000281FD049
:10E5E00000291DD00F4A1278002A19D00A88112A52
:10E5F0000ED0302A06D0322A07D0332A10D1091D76
:10E6000003F078BE091D03F0D9BE091D03F0D0BD8B
:10E610008988B0F8AA21914202D1002180F8A7117F
:10E6200070470000A821002010B50B46040009D057
:10E630001148017841B1C16831B194F8A71129B1ED
:10E64000112010BD0E2010BD082010BDA4F8AA3165
:10E650000021816084F8A811084884F8A611224698
:10E66000006820600121184690DF0028EDD10120CC
:10E6700084F8A701002010BDA82100203030002020
:10E680007CB5054608880C460930904201D90C201B
:10E690007CBD684671DF0028FAD1218808206854C3
:10E6A00020881B21401C80B2208029542088401CD7
:10E6B00080B220802844DDF801100160BDF805100B
:10E6C00081802088801D80B220809DF8001001B1DB
:10E6D000012129542088401C208000207CBD00009E
:10E6E00010B5044601F012FB21460C48FFF776FFF7
:10E6F0002046FFF703FF09482146E038FFF7D9FD20
:10E7000006482146FC3800F03DF8204603F0DCFCCA
:10E710002046BDE81040FFF7D7BB0000F8270020D7
:10E7200030B5174B0D4604000FCB85B08DE80F00B8
:10E7300023D015B34FF6FF70A0822868A061002097
:10E74000A0752146684663DF002814D120788DF833
:10E7500012000120ADF81000A21C04A9A0DF0028BF
:10E7600009D12946204604F09BFC002803D1294604
:10E77000204605F00FFB05B030BD0E20FBE7000082
:10E78000A441020000281ED000291CD00A88102AAB
:10E7900014D0112A14D0502A15D131F8062F038A2B
:10E7A0009A4202D14B89022B0ED083889A420AD119
:10E7B0008369002B07D04A890C311847898801E00A
:10E7C0004FF6FF7181827047097B11F0010100D083
:10E7D00001218175704707B584B068B1828AA2F5BE
:10E7E0007F43FF3B0AD0827D42B1BDF81820142A36
:10E7F00006D9072007B000BD0E20FBE70820F9E787
:10E80000002200920192029203928289039106A94A
:10E810000291ADF8002001218DF80210808A69462E
:10E82000A6DFE7E770B50D4C00256069012808D028
:10E83000A5612069012810D12561BDE87040FFF76E
:10E840006DB8A0691E2802D2401CA061F1E7656185
:10E850000020A56104F0F8FCEBE770BD84200020E7
:10E860000149086170470000842000202DE9F04133
:10E870000C460D7849788AB0601890468778891CD4
:10E880002046FFF703FE06464246214637A000F029
:10E8900081F84146204600F085F8012803D0B742B0
:10E8A00009D0032117E0022231A13248FFF793FF7C
:10E8B0000AB0BDE8F08100264FF6FF700A2D52D253
:10E8C000DFE805F0512B050D2E4632393C49042076
:10E8D00001F08EF90021284600F012F9E8E760798E
:10E8E00000902379E27824A101A8FEF797FB207A13
:10E8F0000090E379A27920A105A8FEF78FFB05A976
:10E9000001A804F0D3FA0021284600F0F9F8052008
:10E9100002F0A6FC1C480670CAE700F0ADF9C7E794
:10E92000012001F065F9C3E763792279E178A078E5
:10E9300002F056FDBCE700F053F8B9E7A17801EB0F
:10E940004102C2EBC11100EAC10010490880AFE7E3
:10E9500000F0ECF8ACE7A1780D4A00EA0120E1787C
:10E9600001431180A4E71021B5E7000052580000D0
:10E970004F4B0000FC2600202530326425303264E5
:10E980002530326400000000C4200020F220002066
:10E99000D2200020002001E0401CC0B29042FBD3F6
:10E9A0007047000010B50446052209A1FDF7C4FE1A
:10E9B00038B1072208A12046FDF7BEFE18B100209D
:10E9C00010BD042000E0032001F012F9012010BD69
:10E9D00023234F5441000000232352455345540044
:10E9E00000B585B007208DF8000002208DF80100E9
:10E9F000FFF794F98DF80200FFF79CF98DF80300FA
:10EA000004216846FFF742FD8DF8040005216846A1
:10EA100000F052F805B000BD2DE9F0410746901C0A
:10EA2000094DC4B21646A81CFDF762FE2F706E7029
:10EA300021462846FFF72AFD2855641CE1B22846E6
:10EA4000BDE8F04100F038B85C23002017491848B1
:10EA50004A78A2B1807D0A78904200D00870154AA9
:10EA6000002000BF00EB400303EBC00312F813309B
:10EA7000012B0CD0401CC0B20328F3D37047808A0E
:10EA8000A0F57F42FF3AF9D001204870704700237B
:10EA90004B7000EB400101EBC00002EB400102F8BB
:10EAA00010304A78891C0248FFF795BE802000206C
:10EAB000FC2600207023002030B403460F4A0020BB
:10EAC00000EB400404EBC00412F814402CB1401CCD
:10EAD000C0B20328F4D330BC704700EB400505EB0F
:10EAE000C000012402F8104002EB40000A464170C9
:10EAF00030BC801C1946FDF7FBBD000070230020D0
:10EB000010B5094C0022227002226270A070E170E0
:10EB100004212046FFF7BAFC20712046BDE81040D2
:10EB20000521FFF7C9BF00005C23002030B5002499
:10EB300085B0254604F092F8C2784D49192A67D26B
:10EB4000DFE802F00D1114171A1D2023272B2F3395
:10EB5000373B3F43474B4F53575B5F630D004C8E32
:10EB6000B1F8625054E08C888D8E51E0CC88CD8E07
:10EB70004EE00C890D8F4BE04C894D8F48E08C891D
:10EB80008D8F45E0CC89CD8F42E00C8AB1F84050A2
:10EB90003EE04C8AB1F842503AE08C8AB1F84450D9
:10EBA00036E0CC8AB1F8465032E00C8BB1F84850D0
:10EBB0002EE04C8BB1F84A502AE08C8BB1F84C50C7
:10EBC00026E0CC8BB1F84E5022E00C8CB1F85050BE
:10EBD0001EE04C8CB1F852501AE08C8CB1F85450B5
:10EBE00016E0CC8CB1F8565012E00C8DB1F85850AC
:10EBF0000EE04C8DB1F85A500AE08C8DB1F85C50A3
:10EC000006E0CC8DB1F85E5002E00C8EB1F8605099
:10EC100005228DF8002008228DF801200A788DF851
:10EC200002204A788DF803208A788DF80420C07875
:10EC30008DF80500200A8DF80600280A8DF80800D6
:10EC40008DF807408DF8095091F864008DF80A009E
:10EC500008480C2100788DF80B006846FFF716FC79
:10EC60008DF80C000C216846FFF726FF05B030BD7B
:10EC7000C42A0020D220002000B585B001208DF8E4
:10EC8000000003208DF8010031208DF802003020B3
:10EC90008DF8030034208DF8040005216846FFF745
:10ECA000F5FB8DF8050006216846FFF705FF05B066
:10ECB00000BD04F049BC000070B51D4C00252E4677
:10ECC000E08801280CD10023E6801A4A0621184664
:10ECD000FEF702FF20B118A240F23E41FEF755FEBA
:10ECE000E0681A4A0168914201D10125066000F0EE
:10ECF0002FF8284600F0BAFE00F07CFD04F03EFA42
:10ED000001F0F2FC04F00EFB04F0A2FBFEF77AFD2A
:10ED100000F0A4FC0648313071DF002806D0BDE8C1
:10ED2000704005A240F25541FEF72FBE70BD0000B5
:10ED300084200020EC2400204170705C626C655FD0
:10ED400073797374656D2E63000000000100ADDE01
:10ED500000B587B02648069000208DF814000A21DF
:10ED60008DF815108DF816008DF81700034648220F
:10ED7000204905A804F0C8FB20B11FA240F2FE31D3
:10ED8000FEF703FE6A460121002004F0A7FB20B134
:10ED900019A240F20141FEF7F8FD0520ADF8000090
:10EDA0001A4804F0FFF920B113A240F20641FEF721
:10EDB000ECFD06A9684660DF20B10FA240F20A41CF
:10EDC000FEF7E3FD124804F07FFB20B10AA240F2F7
:10EDD0000E41FEF7DAFD0F4804F0C0FB002804D016
:10EDE00005A240F21241FEF7D0FD07B000BD0000C1
:10EDF00080200020A42400204170705C626C655F5C
:10EE000073797374656D2E6300000000E81F0020A5
:10EE1000E1E60100513A020004F090BBC00140EA73
:10EE20000110C1B21143402000F0F2B81CB50446F5
:10EE300006226946122000F09AF8BDF800002080F2
:10EE4000BDF802006080BDF80400A0801CBD10B5B4
:10EE50000446012000F026F86420FDF79FFBA4F192
:10EE60001000022803D821467E2000F0D1F84FF48C
:10EE7000FA70FDF793FBBDE81040002000F012B8D7
:10EE80000146412000F0C4B810B5012000F00AF896
:10EE90000348FFF7CBFFBDE81040002000F002B8A8
:10EEA000382200200146012001F0AEBD02494A6827
:10EEB000026009898180704734220020000741EAFE
:10EEC0001061422000F0A4B810B504460120FFF7FD
:10EED000E9FF6420FDF762FBA4F11400032803D8C6
:10EEE00021467E2000F094F84FF4FA70FDF756FBAF
:10EEF000BDE810400020FFF7D5BF0146432000F0D9
:10EF000087B80120FFF7CEBF10B50F4C2168481C11
:10EF100028290ED003DCA9B1142913D104E0322929
:10EF20000BD064290ED110BD2060BDE8104000F068
:10EF300033B8BDE81040FFF7A7BF1420FFF7C4FFA8
:10EF40002068401C206010BD3422002010B504460B
:10EF50000121084601F058FD2146D22001F0DDFDD7
:10EF600004460021012001F04FFD204610BD70B580
:10EF70000C46054601211646084601F045FD23468C
:10EF800032462946D22001F097FDBDE870400021AD
:10EF9000012001F039BD000010B50120FFF782FF0C
:10EFA0000020FFF7D3FF0446052202210020FFF7CF
:10EFB00035FF06210020FFF781FF0C20FFF760FFDF
:10EFC0000420FFF79AFF0020FFF76CFF1220FFF7E5
:10EFD0003EFF1420FFF778FF5320FFF7B7FF2246CC
:10EFE0000346BDE81040024902A0FEF707B8000042
:10EFF000D84202005B25735D204368697020494454
:10F00000203D20253032582C20253032580D0A0062
:10F01000F8B50F4606460121084601F0F5FC00242C
:10F020003A463146D22001F0CDFDC820FDF7B6FAB0
:10F030007E2E06D03146D22001F06FFD0546B84243
:10F0400005D1BDE8F8400021012001F0DDBC641CC1
:10F05000E4B2142CE4D30021012001F0D5FC3B469E
:10F060003246084908A00095FDF7C8FFBFF34F8F4F
:10F0700013480168134A01F4E06111430160BFF3D2
:10F080004F8FFEE7B14202005B25735D2057726926
:10F090007465204572726F722E2041646472203D47
:10F0A00020253032582C2044617461203D202530C9
:10F0B0003258202D3E20253032582E0D0A000000F7
:10F0C0000CED00E00400FA051CB5044681786A46A0
:10F0D0000C4803F0EDFA002813D160780A49C0EB20
:10F0E000C00001EB80001C231A46694603F09CFB1C
:10F0F000054806494030807A51F82020214668466C
:10F1000090471CBDC8210020EC3200202C42020098
:10F1100010B5082002F030FFBDE81040092002F0D1
:10F120002BBF000003484FF480710160490001606B
:10F13000704700000805005010B5082002F01CFFC1
:10F14000BDE81040092002F017BF0000134900225B
:10F15000C1E900020A61124A052811D2DFE800F075
:10F1600003080C151A000F4A4FF6FF71116007E0F3
:10F17000CA600A4A143202E0CA60084A38328A6019
:10F180000246094909A0FDF739BF0D4ACA60034A82
:10F190005C32F4E7CA60014A8032F0E76422002062
:10F1A000801A060040950040034302005B25735D12
:10F1B0002054797065203D2025640D0A0000000070
:10F1C000A086010070B50E4D0E4E2C6804EBC403F2
:10F1D000641C04F0070406EB83032C6059830221AE
:10F1E000D9831C1D1C6200249C8301241C761A7187
:10F1F000120A5A711880997004F0A8FD002070BDA1
:10F20000A0210020102F002005494FF0FF320828D0
:10F2100041F8202002D3084480F8482070470000BD
:10F220003C2C00200249084490F93000704700004F
:10F230003C2C002008B50B4690F8A611C1EBC1018B
:10F2400001EB810100EB410290F8A50140B1401EA5
:10F25000C0B200EB400102EB8100408A401C00E09C
:10F26000D088ADF800001089ADF802006946184654
:10F2700092DF08BD2DE9F0413B48017801EB8101A7
:10F2800000EB8104241DD4E9020600EB400136485E
:10F29000CC3000EB8100B0F808804589476803F066
:10F2A0008EFAB6FBF0F100FB116088B35FF000004E
:10F2B00008FB05776188A288DFF8B08011448D19BA
:10F2C0000022C8F8102040B103F079FA6188884222
:10F2D00021D0BD4201D1A088E8B1A06803281AD08E
:10F2E00003F06DFAA18844463144B1FBF0F200FB13
:10F2F00012108008C8F80C0003F061FAB5FBF0F1B9
:10F3000000FB115078B10020BD4228D068B126E042
:10F31000FFE70120CCE703F052FAB6FBF0F103203F
:10F32000C8F814101CE00120EEE7ADB2BEB203F045
:10F3300046FAB6FBF0F703F042FAB5FBF0F087426D
:10F3400001D1701B09E003F03AFA064603F037FAE0
:10F35000B5FBF0F100FB1150301A8008206102204B
:10F36000BDE8F04104F092B82C2E0020642100206A
:10F370000648017801EB810100EB81000079042847
:10F3800001D000F059B8012004F080B82C2E0020E4
:10F390000A480B4A017801EB810100EB8100C1882A
:10F3A00011620079012805D0032801D0042804D176
:10F3B000FFF760BF012004F069B870472C2E0020D1
:10F3C0006421002000EB80020548002100EB820050
:10F3D00002220171C180C0E90321416101817047AE
:10F3E0002C2E00202DE9F041114D069E6C780A2C40
:10F3F0001BD02F783C440A2C00D30A3C04EB840435
:10F4000005EB840420716261D1E90001C4E90301C4
:10F41000E38026816878401C68700648007808B947
:10F42000FFF7B6FF0020BDE8F0810420FBE70000F5
:10F430002C2E00206421002010B50E4C207800EB0B
:10F44000800004EB8001091D0020FEF7C3FA20783C
:10F45000FFF7B8FF6078401E60702078401CC0B293
:10F4600020700A2801D100202070BDE81040002043
:10F4700004F00CB82C2E00202DE9F05F2648C1685E
:10F48000F1B3DFF898B00E688146DBF800400769F9
:10F49000C078E11B21F07F45ED1CB0B9DFF880801A
:10F4A0004FF48030C8F84403C8F804031120FDF776
:10F4B00089FB1120FDF792FB4FF0010AC8F800A06C
:10F4C0002F20FCF7E3FF89F803A0B54200D23546B0
:10F4D000124BE8193C3320F07F401860DBF8001035
:10F4E0005A46091B21F07F41001BC91C20F07F40B8
:10F4F00081420FD9106818602F20FCF7C7FF00E089
:10F5000004E0BDE8F05F1120FDF774BBBDE8F05FDB
:10F5100003F000BBBDE8F09F10210020041501405E
:10F520000010014010B500F023F8002806D105496D
:10F5300003480860BDE8104000F034B810BD00007A
:10F540000210AA552C2B00200748018801290AD156
:10F5500006490988A1F57F42FF3A04D100210180C4
:10F56000052000F045BB7047F42000208C200020CF
:10F5700010B54FF482720649782001F074F80448FF
:10F5800004490068884201D0002010BD012010BD50
:10F590002C2B00200210AA55014901200880704739
:10F5A000F42000204FF480520149782001F06AB81D
:10F5B0002C2B00202DE9F04117880646B81D144673
:10F5C0000D46984202D90C20BDE8F081318807220F
:10F5D00006290AD34FF4486C4FF6FF73614501D9F1
:10F5E000994202D17088062801D21046ECE76045A6
:10F5F00001D99842F9D1994203D0984201D0814271
:10F60000F3D80520E85520881221401C80B22080C4
:10F6100029542088401C80B220804119308804F091
:10F620003BFC2188084480B220804119708804F096
:10F6300033FC2188084420800020C5E702A240F264
:10F640003311FEF7A2B900004170705C626C655F17
:10F6500073797374656D2E630000000000B587B088
:10F660001C216846FDF75DF800204FF42031CDE9FC
:10F6700000014FF47021029103218DF80C10ADF8B8
:10F680000E008DF81000084805900848069068465E
:10F69000FEF708FF002804D005A24FF4A671FEF77C
:10F6A00074F907B000BD0000BD2202003DF6010064
:10F6B0004170705C626C655F73797374656D2E6305
:10F6C00000000000F8B5134801F066FB114D00265C
:10F6D000114C0C3D30B16169B9B101208DF80000C9
:10F6E000684611E0287820B1616971B18DF8006039
:10F6F000F6E7687858B1A168084800220068FEF76C
:10F7000033FA10B1A16901B188472E70F8BD616864
:10F71000F2E700003C210020B42C0020A0410200B0
:10F7200070B5094B044608209E7A00250E4208D089
:10F73000A4F57F40FF3802D01889A04202D10020F2
:10F74000156070BD052070BD2033002000EB400225
:10F750000748012100EB820081724FF6FF710181A1
:10F76000FF21C1720021016081808171704700001A
:10F770002033002010B5134C207900071ED4606997
:10F78000401C6061E06808B104200AE001F038FB29
:10F7900008B1022005E0206960B16068C10704D0AB
:10F7A0000320BDE8104004F049B940F0010060605A
:10F7B0000020F6E7BDE81040FFF7DABDBDE81040D5
:10F7C00004F032B96421002006494868020707D4D2
:10F7D000820702D540F001004860022004F02EB9F3
:10F7E00004F022B96421002001460148FEF78CBDD7
:10F7F0001827002010B50648FEF7E2FE002806D0C4
:10F80000BDE81040034A40F21731FEF7BEB810BD04
:10F81000E9F70100DC4002002DE9F843054690F8C5
:10F82000A60195F8A541C0EBC00000EB800005EBF8
:10F8300040060F4604EB4400914606EB8001327906
:10F840000A31601C904226D16B460022284601F006
:10F85000B1FA18B310E0401EA04201D1002004E02C
:10F8600004EB440006EB80001630804602466B46EF
:10F87000284601F09FFA30B10020387069464846AA
:10F8800093DFBDE8F88395F8A5014146401C641C50
:10F8900085F8A501E4B23079A042DCD801203870A7
:10F8A0000020EEE72DE9FC410E46044681786A46C9
:10F8B000254802F0FDFE002829D16078234F00EB97
:10F8C000400007EB8000807A400622D4022E20D030
:10F8D000012E20D01E4D1D49A078F839C0EBC00084
:10F8E00001EB800100231C226846A847A8B1022E24
:10F8F0000DD02078154900EB40000C3101EB800061
:10F900001449807A51F82020214668469047BDE886
:10F91000FC81114DDFE7114DDDE7022EF7D0607855
:10F9200000EB400007EB8000817A21F040018172FA
:10F93000064960783439C0EBC00001EB80011C231C
:10F940001A466846A847D4E7C82100202033002083
:10F95000B13902001C420200552A0200852902002A
:10F96000012001F07DFCB12044DFFDF75FF90000CC
:10F9700010B507490120FEF70FF820B105A240F2AB
:10F980004D11FEF702F804F06DF80649C86010BD8D
:10F99000503300204472765C6465766963652E633B
:10F9A00000000000042200202DE9F04705250F4F3C
:10F9B0009046894606460024C4EBC40007EB80004D
:10F9C00036B1103007223146FCF7B6FE18B106E01A
:10F9D000018B414503D10025C9F8004002E0641CB9
:10F9E000072CE9D32846BDE8F08700002832002024
:10F9F0007CB5054681B26A46074802F059FE04000C
:10FA000008D15421684602F07DFE040002D1284648
:10FA100002F018FE20467CBDC821002010B50A78EF
:10FA2000112A02D0152A11D105E0094901224A61A3
:10FA3000006848620AE0486801880648FEF7F4FD5D
:10FA400020B105A240F2BE21FDF79FFF002010BDAE
:10FA500084200020F82700204170705C626C655F94
:10FA600073797374656D2E63000000001FB58DF807
:10FA70000C0002F0A9FE20B11DA240F2D621FDF734
:10FA800084FF03A800F07CFB20B119A240F2D92129
:10FA9000FDF77BFF0021CDF805109DF805008DF8DE
:10FAA000091020F07E0040F00100303020F080008E
:10FAB0008DF8050007208DF8060010208DF807004E
:10FAC0001048009001208DF804000F48DDF8052053
:10FAD000C26280F830106946801C00F071FC00287A
:10FAE00004D003A240F2EA21FDF74FFF1FBD000042
:10FAF0004170705C626C655F73797374656D2E63C1
:10FB0000000000001DFA0100842000202DE9F041D2
:10FB1000314C0026277807B901262F4800254FF6DB
:10FB2000FF7241682D48062F008852D2DFE807F0A7
:10FB30005103214C254321B1012931D0022948D15B
:10FB40000CE0904228D0132176DF28B324A2B02104
:10FB500020E000BF03F086FFA0601DE003F082FFFD
:10FB6000A168401A142834D901F038FD00F048F893
:10FB70002CE004F007F83CDF28E021B101290FD088
:10FB8000022926D10FE0904206D0132176DF18B16A
:10FB900013A2E221FDF7F9FE6068401C606018E0E6
:10FBA0009042D7D015E003F05DFFA168401A1428F9
:10FBB0000FD9FFF7D5FE21B1012905D0022908D1BF
:10FBC00004E0FFF7EFFCE7E7FDF730F8257065602C
:10FBD000A560F0B2BDE8F081042200208C20002056
:10FBE0004472765C6465766963652E63000000008C
:10FBF000024900224A600870704700000422002079
:10FC000010B503F0BFFF032211461A2002F094F949
:10FC100003221146192002F08FF903221146042015
:10FC200002F08AF903221146072002F085F93CDF31
:10FC300010BD00002DE9F047894690F8A6119046C6
:10FC4000C1EBC10101EB810100EB4107384602F035
:10FC500045FF060039D01E4CA068062835D21D4D40
:10FC600000EB800005EB00104622A0F80280001D8A
:10FC70003946FCF73DFD0027B9F1000F06D0A0681A
:10FC800000EB800005EB0010077006E0A168022081
:10FC900001EB810105EB01110870A06800EB800108
:10FCA00005EB0111401CCE64A060E16888420CD1D4
:10FCB000002606E006EB860005EB0010C16C8847C5
:10FCC000761CE0688642F5D3A760BDE8F0870000A7
:10FCD000A82100204830002030B50D4690F8A6112C
:10FCE00093B0C1EBC10101EB8101144600EB41006F
:10FCF00002F0F4FE030007D0ADF8024001208DF8B9
:10FD0000000068460195984713B030BD2DE9F04FCB
:10FD1000054693B0FB48FF24079400784FF0000A93
:10FD2000002857D0F84E3068002853D001A800F0C2
:10FD30001BFA20B1F54A40F6F111FDF726FE281D09
:10FD400005902C20ADF818000027FF208DF8060044
:10FD50008DF804700097EC4C28880C3CBB461028AA
:10FD60000FD0A8886A460221FFF7DAFC48B900984C
:10FD700000EB400104EB8101C97A8DF806108DF883
:10FD80000500DFF884932888A9F140091322A9F11E
:10FD9000C408192875D010DC10281ED011285ED098
:10FDA00013286FD0142815D1009800EB400004EB05
:10FDB0008000C07AFF287DD09AE0D44910391A28F3
:10FDC00076D01E2875D0522804D1B07A51F8201070
:10FDD00001A8884713B0BDE8F08F4FF6FF766A465A
:10FDE00001213046FFF79CFC0028F3D10099022244
:10FDF00001EB410004EB8000827211228DF810208B
:10FE00008DF80510A9880181A9680160A989818000
:10FE1000A97B8171E87DC10708D0BA49083101EB9F
:10FE200050000078FF2809D0079007E0324607A964
:10FE300005F10800FFF7B8FD00280FD100990798D9
:10FE400001EB410104EB8101C8728A7A42F0080299
:10FE50008A728DF8060001A8FFF736F96EE1009866
:10FE600000EB400004EB8001887A20F002008872E9
:10FE7000010708D500060FD5002101A8FFF712FDE4
:10FE80000AE0BDE043E09DF80600FF2804D002F040
:10FE9000D9FBFF208DF806000099102001EB4101ED
:10FEA00004EB8101887212208DF8100046E101E018
:10FEB000FEE041E12A8A07A90020FFF775FD78B925
:10FEC0000098079900EB400004EB8000C172827A31
:10FED00042F0080282728DF8061001A8FFF7F4F8CC
:10FEE000009800EB400004EB8000C07AFF2804D0AB
:10FEF0000098C0EBC00109EB810A00980023C0EB19
:10FF0000C00108EB8102A888514686DF62E70098AD
:10FF10008DF8102000EB400004EB8001887A40F05F
:10FF200004008872CA7AFF2A0BD040F04000887221
:10FF3000162000238DF81000A8881A4685217FDF3F
:10FF400033E00DF11C0C48F2430300204FEA080295
:10FF5000C0EBC00802EB880898F81A80B8F1FF0FD0
:10FF600026D0401C0728F3D34FEA03070099CDF8A9
:10FF700030B001EB410304EB8303DB7AC3EBC30333
:10FF800002EB8302CDE90D2BC1EBC10209EB82012B
:10FF9000CDE9081BCDF83CB0CDF828B0CDF82CB099
:10FFA000321DA88808AB00217FDF0028AED1C5E054
:10FFB0000B78022B12D0C0EBC00302EB83034FF08F
:10FFC000FD0883F81A80D1F80080C3F81080B1F8DA
:10FFD0000480A3F814808979997505E0C0EBC0010D
:10FFE00002EB8101FE238B768CF8000000990798C4
:10FFF00001EB410104EB81018DF80600C872B5E701
:020000040002F8
:10000000707A20F001007072009E06EB460304EB4C
:100010008300817A21F0040282724FF014018DF87E
:100020001010297A31B1510603D4C07AFFF7E0FCF1
:100030002F7A83E0697A490739D59DF80610FF29A0
:100040007CD042F0080282726A7B920707D5C1EB2E
:10005000C10508EB8502957E25F001059576C27AEB
:10006000FF2A6BD014F82320022A0ED0C1EBC10264
:1000700008EB820102680A6182888A828079887529
:10008000887E20F0020088760DE0C6EBC60209EB00
:100090008200C1EBC101428A08EB81000283817EAC
:1000A00021F001018176012101A8FFF7FBFB45E06A
:1000B000287A0122B2EB101F2AD100F00F0001288C
:1000C00026D1009800EB400004EB8002927A1207E0
:1000D0001ED50D49243901EBC00008300E21FCF774
:1000E00020FB16208DF81000009800EB400004EB78
:1000F0008000817A41F060018172707A40F00200E4
:1001000070721BE0B82100202C3300204C4202000A
:10011000009800EB400004EB8000827A42F08002FD
:10012000827215208DF81000B07A51F8201001A8C5
:10013000884718B1002701E08DF810203A4604A93D
:1001400001A8FDF723FC9DF8100012287FF4DEAE15
:10015000009800EB400104EB8101897A01293FF40A
:10016000D5AEFFF7F3FA35E630B1FF2101704170EB
:100170008170C1700020704748F20E007047000087
:100180002DE9FF4105003AD02B4800240460447259
:1001900084722046FFF7DAFA274818212438FCF742
:1001A000C0FA0026DFF89480FF27304602F04AFAB2
:1001B00008F80670761C072EF7D35420ADF804001B
:1001C0000720ADF806001E481C490090083168461B
:1001D00002F07EFB00280FD1184E0120083E30703F
:1001E000287878B1BDF80400BDF80610484381B204
:1001F00006F1100002F086FA04B0BDE8F08148F282
:100200000E00F9E70F4F00250C48A9B202AA0830EA
:1002100002F04EFA48B9C5EBC50007EB8000002399
:100220001C2202A902F000FB08B13470E4E76D1C47
:10023000072DE9D3E0E700002C330020C021002087
:1002400049020200283200202DE9F04F814658482B
:1002500093B08A4600681C9F1E469346002859D0DA
:10026000542F57D84FF0010803A8FFF77DFF20B1A6
:10027000504A40F2A151FDF788FB0024CDE90676F3
:100280008DF80C408DF800402546A9B210AA4A48C6
:1002900002F00EFA28B9082210A94846FCF74CFAD9
:1002A000E0B16D1C072DF0D39DF80E00FF2831D072
:1002B000202540230DF11409BAF1030F11D03F4F4F
:1002C0004FF01C0CF11BB1FBFCF20121072A24D2D8
:1002D000CDF80490BBF1000F0FD014E08DF80E5054
:1002E000E2E7542F02D08DF8003001E08DF8005085
:1002F0009DF8000040F003004CE02F4A8140103A86
:100300005268114206D003F0CDFD8DF80050B8F1CF
:10031000000F38D113B0BDE8F08F254A403AA6EB64
:100320000208B8FBFCFCBCF1000F09D002F11C0074
:10033000321A1825B2FBF5F2B2B18DF80030E9E7B8
:10034000C0EBC0008DF80D4007EB8000CDE9082020
:10035000CDF8049008A81649CDE906500C31CDE936
:100360000C418DF800500EE08DF80D408DF80F1007
:100370000F4930220C398DF80020897A890702D480
:100380001821FCF7CEF99DF80000BAF1020F0BD04E
:1003900040F002008DF800005A46694603A8CDF8E7
:1003A0000490FDF7F3FAB5E740F00100F2E7000032
:1003B0002C3300204C420200C821002028320020AB
:1003C000164A10B512785AB148F20E0258B151B11E
:1003D0000B6843B1124A14683CB148F2040010BDE6
:1003E00048F2080010BD104610BD0D4C1360241FCC
:1003F000D1F80530A3604B7A23730979917223F009
:10040000050141F002011172D17921F0040141F09E
:100410000301D17100210170084610BDB8210020F0
:100420002C33002002461148017848F208000029C8
:100430000CD04AB11178002908D10D490B68002B66
:1004400004D0527872B902E048F20E007047084AB0
:100450000C3A937A012B05D09B07F7D51089091D1B
:100460007EDF704748F2100070470000B82100207E
:100470002C330020154A10B5127848F2080372B1E7
:100480009A1D18B111B102784AB901E0104610BDA9
:100490000F4C0022246814B1407860B901E018467E
:1004A00010BD0B480C38807A012804D010F0240FBE
:1004B00004D0012005E048F2100010BD000602D56E
:1004C0000220087000E00A70002010BDB821002052
:1004D0002C330020F0B5254A48F20803127832B3D5
:1004E0009A1D38B131B10C6824B18C6814B1007810
:1004F000E8B901E01046F0BD1D480068B8B100231E
:100500001B4C1A460C3C1846A4F1F805E67A8642C4
:1005100002D1A67AB60722D40E7B964210D9C0EB40
:10052000C00605EB8606B77EFF0702D008E0184636
:10053000F0BD8F6847F822600C4E0836B054521C4C
:100540000E799E420BD9C0EBC00605EB8606B77E3E
:10055000BF0704D40F68103647F823605B1C401CAB
:100560000728D3D30B710A730020F0BDB8210020F7
:100570002C3300200E4910B54A788C780023A24213
:1005800012D0521CD2B24A70022A00D14B70084AD3
:100590004B78183252F8232002600869104420F08A
:1005A0007F400861012010BD0360002010BD0000E5
:1005B00010210020002808D0112801D0FDF720BA12
:1005C0000248416841F00801416070476421002001
:1005D0007047000010B51F4C204621784068012963
:1005E00010D002292DD0032932D1000725D460690B
:1005F000401C606100F004FCD8B12078BDE81040D8
:1006000002F044BF000718D41348A28B017801EB15
:10061000810100EB8100C188891A0904090CC1809D
:1006200003D0BDE8104003F0C5B9BDE81040FEF7A7
:1006300003BFBDE81040FEF79BBEBDE8104001F0CF
:100640009FBA0648617850F82100BDE81040004785
:1006500010BD0000642100202C2E0020C8410200A3
:1006600028DFFFF7A7BF10B50B46010305D023B164
:100670001846FCF73DF8002010BD042010BD29DF0E
:10068000FFF798BF2DE9F041074606030C46950891
:10069000FEF7C2FB012801D1FEF70BFB384628DF2D
:1006A00018B108A25C21FDF770F92A4621463046B0
:1006B00029DF040003D003A25F21FDF766F920467D
:1006C000BDE8F0814472765C666C6173682E6300ED
:1006D0007047000020B10349496D01600020704758
:1006E00003207047D42D00200EB516A19DF80800F8
:1006F00020F00F00401C20F0F00030308DF8080092
:10070000042202A87CDF20B110A240F20B11FDF7F9
:100710003CF90020009001901021ADF80400ADF8E4
:1007200000104FF4C8703C21ADF80600ADF802107F
:1007300068467ADF002804D004A240F21511FDF7C4
:1007400024F90EBD516C6971000000004170705CAD
:10075000626C655F73797374656D2E6300000000D1
:100760000020704700207047002070472DE9F047B7
:1007700006464078DFF89C9000EB400209EBC2008F
:10078000002409F1180A4368274625460AEB82012E
:1007900063B191F80AC05FEA0C6807D55FEA4C6C58
:1007A00004D459F8325000F108049FB20889D046A9
:1007B0002B463A462146A9DF0B280AD1707801253D
:1007C00000EB400008EB80002B4600893A462146AA
:1007D000A9DF48F2410400B12046012D16D17078FE
:1007E0004FF6FF7200EB400008EB80000C210089FF
:1007F000A7DF00280AD0A0F54051023908D0082808
:1008000006D0891E04D0112802D00020BDE8F08750
:100810002046FBE70833002070B50C46014660789F
:100820000A4D00EB400005EBC0003823182201F010
:10083000FBFF002808D1617801EB410105EBC10104
:100840004A68521C00D14A6070BD00000833002085
:100850002DE9F04186B0804603270E20ADF8100048
:100860004878284E00EB400006EB80000D460089DA
:100870003B4604AA6946AADF08BB6878A6F11804BB
:1008800000EB400004EBC0000830BDF810206946C2
:10089000FBF752FF0028687800EB400005D004EB1E
:1008A000C001496861B1184E0BE006EB8001897AFE
:1008B000890722D404EBC0001821FBF732FF1CE0AB
:1008C000124E44F830706878BDF8102000EB4000FC
:1008D00004EBC00069464260687800EB400004EB1E
:1008E000C0000830FBF704FF6878382300EB4000B5
:1008F00004EBC00118224046B04706B00020BDE816
:10090000F081000020330020552A020085290200D2
:10091000FFF72CBFFFF780BFFFF79ABF70B51B4CE6
:10092000207900072DD41A48017801EB810100EBF2
:1009300081052E6901F043FFE9882A89761E11445A
:100940003144B1FBF0F02169002549B16169814270
:1009500006D1E560606840F001006060002008E0BA
:1009600000F04EFA10B10220E56002E0206920B1EB
:100970000320BDE8704003F061B8BDE87040FEF7A9
:10098000F7BCBDE8704003F04FB8000064210020C0
:100990002C2E002010B5094C606801F0C3FA2068C5
:1009A00001F0C0FA206801F0DFFA606801F0FCFA9B
:1009B0006068BDE8104001F0D7BA0000FC210020BB
:1009C00070B50F4C0A250321206801F08EFA60688B
:1009D00001F0EAFA0B49206804E00A68C24012F00C
:1009E000010F04D02A00A5F10105EDB2F5D1606830
:1009F00001F0BAFA2068BDE8704001F093BA000037
:100A0000FC2100201005005010B5174C012804D01F
:100A1000022806D0032808D113E01E2020601F20E2
:100A200002E0062020600520606001290DD0002131
:100A3000606801F05AFA2068BDE81040002101F01A
:100A400054BA172020601820EEE7606801F06AFAB7
:100A5000206801F067FA606801F0A6FA2068BDE836
:100A6000104001F0A1BA0000FC21002010B50021C7
:100A70000120FFF7C9FF00210220FFF7C5FF002179
:100A8000BDE810400320FFF7BFBF000010B5094CC0
:100A9000606801F047FA206801F044FA206801F02C
:100AA00083FA606801F080FA6068BDE8104001F0E8
:100AB0005BBA0000FC2100202DE9F04106461446F7
:100AC0001D460F4600F0BCF8304600F095F8FFF7E1
:100AD00077FF384600F090F8FFF772FF00F0C2F899
:100AE00000F0AEF8761CF0B200F086F8FFF768FF71
:100AF0000AE000BF00F034F805F8010B012C09D022
:100B0000FFF748FF641EE4B2002CF3D1BDE8F041CA
:100B100000F0A8B8FFF7BAFFF4E770B504460D4639
:100B200000F08EF8204600F067F8FFF749FF2846EE
:100B300000F062F8FFF744FF00F094F800F080F84E
:100B4000641CE0B200F058F8FFF73AFF00F008F834
:100B50000446FFF735FF00F085F8204670BD000021
:100B60002DE9F041154C082600250321206801F0ED
:100B7000BCF9606801F0F8F9114F13E06806050E42
:100B800020783968C14011F0010F01D045F001050E
:100B9000606801F009FAFBF7F0FC606801F0E4F925
:100BA000FBF7EBFC3000A6F10106F6B2E6D12068B7
:100BB00001F0B8F92846BDE8F0810000FC210020D2
:100BC0001005005070B515460E46044600F038F882
:100BD000204600F011F8FFF7F3FE304600F00CF865
:100BE000FFF7EEFE284600F007F8FFF7E9FEBDE844
:100BF000704000F037B8000070B5104C064608256C
:100C0000606801F0B1F913E03006206802D401F009
:100C1000ABF901E001F0C8F9606801F0C5F9FBF734
:100C2000ACFC606801F0A0F9FBF7A7FC7006060EAB
:100C30002800A5F10105EDB2E6D170BDFC21002030
:100C400010B5074C206801F0AFF9606801F0ACF90D
:100C5000206801F089F96068BDE8104001F084B9AE
:100C6000FC21002010B5074C206801F07DF9606878
:100C700001F07AF9606801F097F92068BDE810404A
:100C800001F092B9FC210020F0B5234900200A466A
:100C9000B1F91050B2F91210B2F914406B1C03D123
:100CA0004A1C01D1621C35D01B4A20321346B2F9CE
:100CB0000060B3F90420B3F90230771C03D15F1C44
:100CC00001D1571C26D0002E00DA7642002D01DA21
:100CD000C5F10005751B00D56D424FF49676B542FF
:100CE00017DC002B00DA5B42002901DAC1F10001B8
:100CF000591A00D54942C8290BDC002A00DA5242B1
:100D0000002C01DAC4F10004111B00D54942B142A4
:100D100000DD0120F0BD0000CC200020F8B51C4C07
:100D20002078002832D0206928B10025E06820B161
:100D3000002625B112E00125F8E70126F9E768460B
:100D400052DF052805D030B1124A9321FCF71DFE71
:100D500004E0012502E021690098884796B960887F
:100D6000ADF800006946A06861DF052805D030B104
:100D7000084AB221FCF709FE04E0012602E0D4E9AA
:100D800002018847002DDAD0002ED2D0F8BD000035
:100D9000FC200020F4400200054940880A88904267
:100DA00004D34988884201D8012070470020704749
:100DB0003421002009892AB1D088491C814218D1E8
:100DC0000020704790F8A621C2EBC20202EB82021B
:100DD00000EB420212899142F2D0491C198090F82E
:100DE000A611C1EBC10101EB810100EB41000089BB
:100DF00002E01980D088401E588001207047000012
:100E000070B50E48017801EB810100EB8104256982
:100E100001F0D5FCE18822896D1E11442944B1FB03
:100E2000F0F1074842698A4205D301D1006910B147
:100E30004FF0000070BD4FF0010070BD2C2E00205F
:100E400064210020800701D00020704701207047F6
:100E50000B4810B500210160416003211A2001F008
:100E600057F80321192001F053F80321042001F061
:100E70004FF80321BDE81040072001F049B80000F9
:100E80004223002038B500258DF8005000F08AF884
:100E9000434A002153185B785354491CC9B20729AF
:100EA000F8D33F4CD071A41E28B12078502874D2BA
:100EB000401C207071E02178002969D050791429F4
:100EC0000BD3322902D240F0100006E0502902D2A2
:100ED00040F0200001E040F040008DF80000C0B27A
:100EE000252802D02A2804D008E00320FEF780FE3F
:100EF00053E0012060700C2000F0B2F90122694635
:100F00000220FDF789FD607840B1022817D0032840
:100F10001ED0042825D005282CD039E09DF80000EB
:100F2000042804D0012804D0022806D030E006208E
:100F300000E0082000F094F92AE00920FAE79DF883
:100F40000000012824D1002000F08AF90D2019E0CA
:100F50009DF8000004281BD1002000F081F90E202C
:100F600010E09DF80000022812D1002000F078F96E
:100F70000F2007E09DF80000082809D1002000F0AC
:100F80006FF9102000F06CF90121052000F090FEAF
:100F90002570C4F80250C4F80650012038BD000086
:100FA0004223002010B51A2000F0EEFF044619205D
:100FB00000F0EAFF44EA4004042000F0E5FF44EAC0
:100FC0008004072000F0E0FF44EAC000C1B20F2017
:100FD000884310BD30B51488E51C9D4201D90C2012
:100FE00030BD02250D5513881C245B1C9BB2138059
:100FF000CC5413885B1C9BB21380012807D00228B5
:1010000007D0032807D0042807D0072030BD0020D0
:1010100004E0012002E0CD5401E00320C854108810
:10102000401C1080002030BD2DE9F041414C0126CC
:10103000F002E578B4466DB9218909B1090B01D0F8
:1010400020812082618909B1090B03D0A4F80AC06C
:10105000A4F812C023784FF6FF711E2B11D3354A26
:10106000A3F11E079278521CD2B2142F02D2A270A2
:10107000D00705E0A3F13207142F11D2A270900718
:10108000D0BB208940082081608901EA400060814E
:10109000208A40082082608A01EA4000608234E0B1
:1010A000462B32D3A27092072FD1A27996403204F8
:1010B000120C00D10122638A1BB9A4F812C0A4F853
:1010C0000AC0638A9A4229D1E27930FA02F100D14A
:1010D0000146228A0AB920822081208A81420FD1CA
:1010E000E9070AD0638120810A2D02D9052000F08A
:1010F000B7F8E078401CE07007E000206081F2E77C
:10110000218949082181400820822078401C2070D4
:1011100000F0FCFABDE8F04100F050BB608901EA44
:101120004000608120894008208101EA43006082FC
:10113000208AE8E7E021002070B52B4C6179032973
:1011400032D0207822790125904206D100202070EB
:10115000607025816081491C61716078401C6070FD
:10116000C00720D100F0D2FA00F028FB2078401C04
:1011700010F0FF0020701CD001281CD002281CD0C9
:1011800003281DD004281DD005281DD006281DD0F9
:1011900007281DD008281DD009281ED00A281FD0D6
:1011A00040F6FF71218170BDBDE87040052000F060
:1011B00057B8258170BD032000E00720208170BD55
:1011C0000F20FBE71F20F9E73F20F7E77F20F5E737
:1011D000FF20F3E740F2FF10F0E740F2FF30EDE7C9
:1011E00040F2FF70EAE70000E021002010B50B207C
:1011F00016211A4B032200BF43F82020401C8842CE
:10120000FAD90B2000F0C8FE0C2000F0C5FE0D201E
:1012100000F0C2FE0E2000F0BFFE0F2000F0BCFE6A
:101220000E2000F0B9FE112000F0B6FE122000F0F2
:10123000B3FE132000F0B0FE142000F0ADFE152028
:1012400000F0AAFE162000F0A7FE00F05FFA00F002
:10125000B5FABDE8104000F08DBA0000000700505C
:101260002DE9F041594D0446E889062801D1062CA4
:1012700027D0052C01D1052823D000F0AFF9214655
:101280002C46E981002540226427012609296BD0DC
:1012900007DC16D2DFE801F01F2215151F2D3415CB
:1012A0004F004B480F2971D00DDC0C2971D00D294E
:1012B00079D00E2905D10078032802D10E20208193
:1012C0006081BDE8F081102979D0FF29F9D126810C
:1012D0006281A581F5E726816281F2E7258165813A
:1012E000A58100F013FA00F069FABDE8F04100F0C2
:1012F00041BA384805702581658125706670E0E740
:1013000066814FF400602081668220822570A5707E
:10131000E57000F0D5FC0B25B0FBF5F105FB1100E5
:10132000401CA07100F0CCFCB0FBF5F105FB1100F6
:10133000401CE071C5E728486421008848432749DC
:101340000988B0FBF1F080B200EB40008000B0FBF8
:10135000F7F010F0FF00207100D126712570657143
:10136000657026816581ACE7FCF7D8FC00EB400096
:101370008000B0FBF7F010F0FF00207100D1267163
:10138000257065716570258166819AE712E000E03D
:1013900009E00078012894D1257040F6FF70208183
:1013A0006081A0818DE7007802288AD140F6014053
:1013B00085E704E00078042883D170207FE7007877
:1013C000052887D125704FF4607078E7E021002070
:1013D00041230020C4200020D2200020F220002041
:1013E0002DE9F0411A4C0D4616461F464FF00008F5
:1013F000012806D0012D0BD0012E0CD0012F0DD0CD
:1014000010E00121084600F053FC0120A0810CE00F
:101410000121104804E001210F4801E00121FF20D3
:1014200000F046FC4046A4F80C80012D02D180B2A9
:10143000801CA081012E02D180B2001DA081012F4D
:1014400002D180B20830A081BDE8F04100F092B92D
:10145000E0210020010001101000010010B5104C27
:101460000120218909B1090B04D02081A189A9B1EA
:101470000021A181618909B1090B00D0608100F0D0
:1014800045F900F09BF921894FF6FF7000EA410110
:101490002181618900EA4100608110BD0F21E8E7E8
:1014A000E021002070B54B4C0020E289092A5ED073
:1014B00007DC19D2DFE802F02635181831373B5F18
:1014C0005700454D0F2A297872D00EDC0C2A5AD0CD
:1014D0000D2A64D00E2A07D1032905D100F016F990
:1014E00000F06CF90420287070BD102A68D0FF2A23
:1014F000FAD1228901210AB1120B1ED02181A289C1
:10150000CAB119E020816081A08100F0FFF800F0ED
:1015100055F9BDE8704000F02DB9BDE87040FFF707
:101520009DBFE08170BDBDE8704000F07BB9BDE8B3
:101530007040FFF779BD0F20A081608908B1000BD2
:1015400000D0618100F0E2F800F038F900F012F903
:1015500021894FF6FF7000EA41012181618900EA8B
:101560004100608170BDBDE87040FFF7E5BDBDE89A
:10157000704000F041B82081608100F0C7F8BDE8FC
:10158000704000F01BB90129ECD100F0BFF800F069
:1015900015F900F0EFF8BDE8704000F08BB80229B3
:1015A000E0D100F0B3F800F009F903209BE7FFE772
:1015B0000429D7D100F0AAF800F000F9052092E73D
:1015C0000529CFD100F0A2F800F0F8F8BDE870408E
:1015D00000F084B8E021002041230020054810B528
:1015E00000210181418100F091F8BDE8104000F038
:1015F000E5B80000E021002070B52D4C6179032989
:1016000032D0207822790125904206D10020207026
:10161000607020816581491C61716078401C607038
:10162000C00720D100F072F800F0C8F82078401C04
:1016300010F0FF00207021D0012821D0022821D0F5
:10164000032822D0042822D0052822D0062822D020
:10165000072822D0082822D0092823D00A2824D0FD
:1016600040F6FF71618170BDFCF764FB08B1092091
:1016700000E00520BDE87040FFF7F2BD658170BD58
:10168000032000E00720608170BD0F20FBE71F20D2
:10169000F9E73F20F7E77F20F5E7FF20F3E740F287
:1016A000FF10F0E740F2FF30EDE740F2FF70EAE7AD
:1016B000E0210020074910B50878401CC0B208702E
:1016C000322805D90020FFF7CBFD0349022008701E
:1016D00010BD0000E021002041230020094910B581
:1016E0000878401CC0B2087032280AD90020FFF7E1
:1016F000B7FD01214FF0113000F0DAFA0249002065
:10170000087010BDE0210020412300202DE9F047A2
:101710001648DFF85CA04FF4807605894FF0010988
:10172000E8B2C04387B200244FF6FF78354204F197
:101730000B0004D009FA00F1CAF8001001E000F033
:101740002BFC641CE4B208EA4606042CEED301210B
:101750000320FFF759F9FAB2F9B24A20FFF732FA3B
:10176000BDE8F04700210320FFF74EB9E02100203B
:101770000C0500502DE9F0470E480125DFF83890A0
:10178000007B002400F00F06A8464FF6FF772E429C
:1017900004F1130004D008FA00F1C9F8001001E0C8
:1017A00000F0FAFB641CE4B207EA4505042CEED312
:1017B000BDE8F087E02100200C0500502DE9F0473E
:1017C0001648DFF85CA04FF4807645894FF0010998
:1017D000E8B2C04387B200244FF6FF78354204F1E7
:1017E0000F0004D009FA00F1CAF8001001E000F07F
:1017F000D3FB641CE4B208EA4606042CEED30121B4
:101800000220FFF701F9FAB2F9B24A20FFF7DAF93C
:10181000BDE8F04700210220FFF7F6B8E0210020E4
:101820000C0500502DE9F05F01F018FAC078012591
:101830000226EC02504F4FF004084FF008094FF019
:10184000100A4FF0200B18280DD2DFE800F00C0E24
:10185000101215181B1E20282B2E0C0E10121518F6
:101860001B1E20282B2E7C8113E07D8111E07E81C0
:101870000FE0A7F80A800CE0A7F80A9009E0A7F8A3
:101880000AA006E0A7F80AB003E0402000E08020AC
:1018900078817978002001290AD0A1B363E04FF460
:1018A0008070F5E74FF40070F2E74FF48060EFE7E7
:1018B0003978052950D801F0D1F90079411E022963
:1018C00001D23C814FE0C11E052901D23D814AE091
:1018D000A0F10801052901D23E8144E0A0F10D01EB
:1018E000052902D2A7F808803DE0A0F112010529E0
:1018F00002D2A7F8089036E0A0F11701052903D21B
:10190000A7F808A02FE029E0A0F11C01052902D2C8
:10191000A7F808B027E0A0F12101052901D2402055
:1019200004E0A0F12601052902D2802038811AE0C6
:10193000A0F12B01052902D24FF48070F6E7A0F147
:101940003001052902D24FF40070EFE73538062840
:10195000B7D84FF48060E9E7787003E0397805295B
:10196000E4D97D7038703878401C3870FFF7CEFEAF
:10197000BDE8F05FFFF722BFE02100202DE9F0472E
:10198000DFF8B0A0DAF80C009AF8004080469AF828
:101990000460DAF80890DAF810703AE009EBC40550
:1019A0002A7833E002EB42016B68521C03EBC10161
:1019B000AB78D2B2934200D100220B78022B02D036
:1019C000032B23D11FE0D1F804C00346014603E0F6
:1019D000614503D00B46C969C1B1F9E7B1B18B428A
:1019E00005D1C06918B9144F0126BE600027D1F88F
:1019F00000C0C969D96149B10B6863440B6005E057
:101A00000174C06900E000210028F9D16978914291
:101A1000C8D12100A4F10104E4B2BFD1CAE903078F
:101A20008AF80460404502D00120BDE8F08700201C
:101A3000FBE7000010210020001001402DE9F047D5
:101A400005463048002680460778D0F80C904BE0D9
:101A5000D8F8080000EBC70440E002D02846ED6942
:101A60001EE02078616800EB4002401CC0B201EB30
:101A7000C2012070A278904200D126700A7848688E
:101A8000012A2DD1027C5ABB8A684260CA688260F2
:101A90000A69C2604969816198F8041001B1466021
:101AA0004268D8F81030DFF860C0D11A21F07F41C9
:101AB000614502D28268114406E0991A826821F0D9
:101AC0007F418A4202D9511A016000E006604660F7
:101AD000012186600174C66102F0D2F8002DBCD1EC
:101AE000207861788842BCD13800A7F10107FFB2A5
:101AF000AED1D8F80C10494502D00120BDE8F087DE
:101B00000020FBE710210020FFFF7F0000F02CF8F1
:101B100002F0C0F9FEF75CFDFDF704FDFDF7CCF81F
:101B2000FBF716FDFEF7A2FFFFF760FB01F09AF846
:101B3000FFF78EF9FDF7E5F902F044F800F092F8AE
:101B400000F05AF8FDF714FF02F002F8FBF7AEFEC2
:101B500002F09EF9FDF7DAFF0128FBD1FBF784FFC5
:101B600000F08EFDF6E700000349032008600349FA
:101B700008200860704700000C070050080500505E
:101B80000348416821F008014160007801F07EBC03
:101B90006421002070B51446828805460E46921CCA
:101BA0002088911C0144994201D8FE2A01D90C20B9
:101BB00070BD521C32542088FF21401C80B220800E
:101BC00031542088401C80B220808119288802F07E
:101BD00063F92188084480B22080AA8842B1A968AC
:101BE00041B13044FAF784FD2088A9880844208058
:101BF000002070BD072070BD04484FF42F71018094
:101C000042F22831418001F079BE0000CC20002052
:101C100010B501F023F8104CA06101F06FFE04F143
:101C20002000FDF743F90D480088062804D00C4831
:101C3000007808B902F070F9FFF726F8012801D101
:101C400001F036FD044820300188218241886182FC
:101C50008088A08210BD0000CC200020EE21002052
:101C600041230020014903200860704728070050E5
:101C700030B50D488168002911D0D0E90025154202
:101C80004FF480634FF0010401D0084D01E0074D8F
:101C90002D1D2B60002A03DA491E0460816030BDCF
:101CA0005100016030BD00004C23002008050050A9
:101CB000024A01231360C2E9010170474C2300204E
:101CC00010B500F0CBFF0F49427948698B69104489
:101CD0001A4480EA900383EA901383EAD013400801
:101CE000DB4340EAC370530083EA820484EAC00401
:101CF00084EA0212D24343EAD272C1E9050250409B
:101D000010BD0000E0210020F8B50E460178144611
:101D10000546012901D1687830B12088821C9A4299
:101D20002DD8012902D006E00720F8BD69780144CA
:101D3000891C994223D8181A801E87B2ADF800700A
:101D40002188B01C084469467DDF0028EDD1287841
:101D5000022805D1BDF80010B94201D809210AE0D6
:101D60000821012805D16878B84202D8ADF80000F2
:101D700001E0ADF80070BDF80000FE2801D90C208C
:101D8000F8BD2288401CB0542088401C80B22080BE
:101D900031542088401C2080BDF800100844208069
:101DA0000020F8BD002070470020704700207047D9
